{
  "contractName": "Coin",
  "abi": [
    {
      "constant": true,
      "inputs": [],
      "name": "minter",
      "outputs": [
        {
          "name": "",
          "type": "address"
        }
      ],
      "payable": false,
      "stateMutability": "view",
      "type": "function"
    },
    {
      "constant": true,
      "inputs": [
        {
          "name": "",
          "type": "address"
        }
      ],
      "name": "balances",
      "outputs": [
        {
          "name": "",
          "type": "uint256"
        }
      ],
      "payable": false,
      "stateMutability": "view",
      "type": "function"
    },
    {
      "constant": false,
      "inputs": [
        {
          "name": "receiver",
          "type": "address"
        },
        {
          "name": "amount",
          "type": "uint256"
        }
      ],
      "name": "mint",
      "outputs": [],
      "payable": false,
      "stateMutability": "nonpayable",
      "type": "function"
    },
    {
      "constant": false,
      "inputs": [
        {
          "name": "receiver",
          "type": "address"
        },
        {
          "name": "amount",
          "type": "uint256"
        }
      ],
      "name": "send",
      "outputs": [],
      "payable": false,
      "stateMutability": "nonpayable",
      "type": "function"
    },
    {
      "inputs": [],
      "payable": false,
      "stateMutability": "nonpayable",
      "type": "constructor"
    },
    {
      "anonymous": false,
      "inputs": [
        {
          "indexed": false,
          "name": "from",
          "type": "address"
        },
        {
          "indexed": false,
          "name": "to",
          "type": "address"
        },
        {
          "indexed": false,
          "name": "amount",
          "type": "uint256"
        }
      ],
      "name": "Sent",
      "type": "event"
    }
  ],
  "bytecode": "0x6060604052341561000f57600080fd5b336000806101000a81548173ffffffffffffffffffffffffffffffffffffffff021916908373ffffffffffffffffffffffffffffffffffffffff16021790555061042d8061005e6000396000f300606060405260043610610062576000357c0100000000000000000000000000000000000000000000000000000000900463ffffffff168063075461721461006757806327e235e3146100bc57806340c10f1914610109578063d0679d341461014b575b600080fd5b341561007257600080fd5b61007a61018d565b604051808273ffffffffffffffffffffffffffffffffffffffff1673ffffffffffffffffffffffffffffffffffffffff16815260200191505060405180910390f35b34156100c757600080fd5b6100f3600480803573ffffffffffffffffffffffffffffffffffffffff169060200190919050506101b2565b6040518082815260200191505060405180910390f35b341561011457600080fd5b610149600480803573ffffffffffffffffffffffffffffffffffffffff169060200190919080359060200190919050506101ca565b005b341561015657600080fd5b61018b600480803573ffffffffffffffffffffffffffffffffffffffff16906020019091908035906020019091905050610277565b005b6000809054906101000a900473ffffffffffffffffffffffffffffffffffffffff1681565b60016020528060005260406000206000915090505481565b6000809054906101000a900473ffffffffffffffffffffffffffffffffffffffff1673ffffffffffffffffffffffffffffffffffffffff163373ffffffffffffffffffffffffffffffffffffffff1614151561022557610273565b80600160008473ffffffffffffffffffffffffffffffffffffffff1673ffffffffffffffffffffffffffffffffffffffff168152602001908152602001600020600082825401925050819055505b5050565b80600160003373ffffffffffffffffffffffffffffffffffffffff1673ffffffffffffffffffffffffffffffffffffffff1681526020019081526020016000205410156102c3576103fd565b80600160003373ffffffffffffffffffffffffffffffffffffffff1673ffffffffffffffffffffffffffffffffffffffff1681526020019081526020016000206000828254039250508190555080600160008473ffffffffffffffffffffffffffffffffffffffff1673ffffffffffffffffffffffffffffffffffffffff168152602001908152602001600020600082825401925050819055507f3990db2d31862302a685e8086b5755072a6e2b5b780af1ee81ece35ee3cd3345338383604051808473ffffffffffffffffffffffffffffffffffffffff1673ffffffffffffffffffffffffffffffffffffffff1681526020018373ffffffffffffffffffffffffffffffffffffffff1673ffffffffffffffffffffffffffffffffffffffff168152602001828152602001935050505060405180910390a15b50505600a165627a7a723058200a4c4aeb97832ef22a4d506999a18981a5650585a46e7601cfd1582d9e64aedc0029",
  "source": "pragma solidity ^0.4.17;\n\ncontract Coin {\n    // The keyword \"public\" makes those variables\n    // readable from outside.\n    address public minter;\n    mapping (address => uint) public balances;\n\n    // Events allow light clients to react on\n    // changes efficiently.\n    event Sent(address from, address to, uint amount);\n\n    // This is the constructor whose code is\n    // run only when the contract is created.\n    function Coin() public {\n        minter = msg.sender;\n    }\n\n    function mint(address receiver, uint amount) public {\n        if (msg.sender != minter) return;\n        balances[receiver] += amount;\n    }\n\n    function send(address receiver, uint amount) public {\n        if (balances[msg.sender] < amount) return;\n        balances[msg.sender] -= amount;\n        balances[receiver] += amount;\n        Sent(msg.sender, receiver, amount);\n    }\n}\n",
  "sourcePath": "/Users/jant/work/transparency/contracts/Contract.sol",
  "compiler": {
    "name": "solc",
    "version": "0.4.18+commit.9cf6e910.Emscripten.clang"
  },
  "schemaVersion": "1.0.1",
  "updatedAt": "2017-11-11T14:41:12.440Z"
}